{
  "contractName": "AneToken",
  "abi": [
    {
      "constant": true,
      "inputs": [],
      "name": "totalSupply",
      "outputs": [
        {
          "name": "",
          "type": "uint256"
        }
      ],
      "payable": false,
      "stateMutability": "view",
      "type": "function"
    },
    {
      "inputs": [],
      "payable": false,
      "stateMutability": "nonpayable",
      "type": "constructor"
    }
  ],
  "bytecode": "0x608060405234801561001057600080fd5b50620f4240600081905550609e806100296000396000f300608060405260043610603f576000357c0100000000000000000000000000000000000000000000000000000000900463ffffffff16806318160ddd146044575b600080fd5b348015604f57600080fd5b506056606c565b6040518082815260200191505060405180910390f35b600054815600a165627a7a7230582092c20754ede6942b01d21d4889f04e3ac346fb66e8b714d55b6da59dd8a034d80029",
  "source": "pragma solidity ^0.4.2;\n\ncontract AneToken{\n    uint256 public totalSupply;\n    constructor() public{\n        totalSupply = 1000000;\n    }\n}",
  "sourcePath": "/media/deus/Workspace/important/Blockchain/ANETOKEN/contracts/AneToken.sol",
  "compiler": {
    "name": "solc",
    "version": "0.4.24+commit.e67f0147.Emscripten.clang"
  },
  "schemaVersion": "2.0.1",
  "updatedAt": "2018-11-25T04:01:39.953Z"
}